:04000000E0EF00F03D
:08000800046ED8CF05F0E0CF33
:1000100006F00001E9CF0CF0EACF07F0E1CF08F0DD
:10002000E2CF09F0D9CF0AF0DACF0BF0F3CF12F01C
:10003000F4CF13F0FACF14F000C00EF001C00FF0AF
:1000400002C010F003C011F09DA02AEF00F09EB096
:1000500082EF00F00EC000F00FC001F010C002F0FF
:1000600011C003F00CC0E9FF07C0EAFF078E08C00B
:10007000E1FF09C0E2FF0AC0D9FF0BC0DAFF12C0DE
:10008000F3FF13C0F4FF14C0FAFF045006C0E0FFF2
:1000900005C0D8FF1000F2CF0DF0F29EF76AB00F46
:1000A000F66E000EF7220900F5500DBEF28E12001A
:1000B0003E3D3B372F1FF2CF0DF0F29EF76AD00F77
:1000C000F66E000EF7220900F5500DBEF28E1200FA
:1000D00021212139213F929C898C929E899E949E58
:1000E0008B9E010E2D6E1200929C899C929E898E91
:1000F00094908B8094928B8294948B84949E8B8E1C
:100100002D6A1200C7A0FED7C9CF2CF02C507F0B50
:10011000296E295229E02950030826E32CAE12D07B
:100120002950010A05E0030A06E0010A07E009D0A8
:1001300094908B9006D094928B9203D094948B944D
:1001400000D011D02950010A05E0030A06E0010A97
:1001500007E009D094908B8006D094928B8203D0D4
:1001600094948B8400D00AD02950040807E12CAE67
:1001700002D0B1DF03D0010E946FB6DFC69E949C0F
:100180008B8C2BC0C9FF2B6A949C8B9CB10ECF6EBD
:10019000E00ECE6E9E902AEF00F0EA6A960EE96EAF
:1001A000EF500DE0020E016E006A002EFED7012E08
:1001B000FBD7970E006E002EFED7EF2EF3D712005E
:1001C000F86AD09E078E7E0E006E100E016E020E33
:1001D000E96E000EEA6EEE6A0400002EFCD7012ED6
:1001E000FAD7C150C00B0F09C16E070EB46EF29C56
:1001F000F29EF2BEFDD7700ED36ED350000E926EFB
:10020000FF0E936E100E946ECF0E826E7F0E806E78
:1002100081686ADF2D6A040E956FFA0E966FBDDF56
:10022000952FFBD7310EC66EC76A550EC96E880E64
:10023000D56E850ECD6ECD6EF30ECF6E4E0ECE6E9C
:10024000FC0ED76E180ED66E9D80C00EF212266A76
:10025000265005081EE38050C00B956F036A265098
:10026000F2CF96F0F29E17DF96BFF28E016E955197
:1002700001102A6E926A2AC089FF036A2650200F55
:10028000E96E000E0320EA6E936881CFEFFF262A05
:10029000DFD7266A26500508D8A0F6EF04F0286AB2
:1002A0008050C00B956F036A2650F2CF96F0F29EF5
:1002B000F2DE96BFF28E016E955101102A6E926A9F
:1002C0002AC089FF036A2650170FE96E000E03202B
:1002D000EA6E936881CFEFFF036A2650200FE96E24
:1002E000000E0320EA6EEFCF95F0036A2650170F39
:1002F000E96E000E0320EA6EEF509519D8B4EBEFCB
:1003000004F0036A2650170FE96E000E0320EA6E10
:10031000EFCF95F0036A2650F2CF96F0F29ECBDE37
:1003200096BFF28E016E9517036A2650F2CF96F0B3
:10033000F29EC1DE96BFF28E016E955D13E0010E56
:10034000966F2BDF936881CF1DF0010E966F25DF2E
:10035000936881CF1EF0010E966F1FDF936881CFE7
:100360001FF031D0840E006E002EFED700D00000AA
:10037000936881CF1DF0840E006E002EFED700D052
:100380000000936881CF1EF01E501D5C0AE1840EB0
:10039000006E002EFED700D00000936881CF1FF0C2
:1003A00012D0840E006E002EFED700D0000093689D
:1003B00081CF1EF0840E006E002EFED700D000000C
:1003C000936881CF1FF01F501E5CD8A4EBEF04F0A0
:1003D000036A2650170FE96E000E0320EA6E1F50C5
:1003E000EF5CD8A4EBEF04F0265010E0010AD8B47B
:1003F000A6D0030AD8B433D1010AD8B4C0D1070AB1
:10040000D8B42FD2010AD8B479D2DCD21FB00DD023
:10041000810E2B6E936881CF1FF01FA0FBD72B524C
:10042000D8A4FDD7010E2B6ECDD21FBA0DD0820EEF
:100430002B6E936881CF1FF01FAAFBD72B52D8A435
:10044000FDD7020E2B6EBED21FA237D01FA435D00F
:10045000276A2750010831E3020E006E2750016E13
:1004600004E0D8900036012EFCD700501F1423E082
:10047000036A2650200FE96E000E0320EA6EEFCFCC
:1004800095F0020E006E2750016E04E0D890003601
:10049000012EFCD7005095150EE1275003E0010A0C
:1004A00006E009D0010E286E140E2B6E04D0010E4A
:1004B000286E940E2B6E272ACCD71FA635D01FA8E6
:1004C00033D0285231E1276A275001082DE3080E66
:1004D000006E2750016E04E0D8900036012EFCD744
:1004E00000501F141FE0036A2650200FE96E000E13
:1004F0000320EA6EEFCF95F0080E006E2750016ED4
:1005000004E0D8900036012EFCD7005095150AE182
:10051000275003E0010A04E005D0150E2B6E02D02F
:10052000950E2B6E272AD0D7036A2650200FE96E2E
:10053000000E0320EA6E1FC0EFFF286A43D21FB0EF
:100540000DD0830E2B6E936881CF1FF01FA0FBD7B9
:100550002B52D8A4FDD7030E2B6E34D21FBA0DD068
:10056000840E2B6E936881CF1FF01FAAFBD72B52EE
:10057000D8A4FDD7040E2B6E25D21FA237D01FA4FE
:1005800035D0276A2750010831E3020E006E27504C
:10059000016E04E0D8900036012EFCD700501F14E5
:1005A00023E0036A2650200FE96E000E0320EA6E56
:1005B000EFCF95F0020E006E2750016E04E0D89048
:1005C0000036012EFCD7005095150EE1275003E0B0
:1005D000010A06E009D0010E286E160E2B6E04D01B
:1005E000010E286E960E2B6E272ACCD71FA635D06B
:1005F0001FA833D0285231E1276A275001082DE384
:10060000080E006E2750016E04E0D8900036012ECF
:10061000FCD700501F141FE0036A2650200FE96E1C
:10062000000E0320EA6EEFCF95F0080E006E275003
:10063000016E04E0D8900036012EFCD700509515CD
:100640000AE1275003E0010A04E005D0170E2B6EE3
:1006500002D0970E2B6E272AD0D7286AB3D11FB0AD
:100660000DD0850E2B6E936881CF1FF01FA0FBD796
:100670002B52D8A4FDD7050E2B6EA4D11FBA0DD0D6
:10068000860E2B6E936881CF1FF01FAAFBD72B52CB
:10069000D8A4FDD7060E2B6E95D11FA237D01FA46C
:1006A00035D0276A2750010831E3020E006E27502B
:1006B000016E04E0D8900036012EFCD700501F14C4
:1006C00023E0036A2650200FE96E000E0320EA6E35
:1006D000EFCF95F0020E006E2750016E04E0D89027
:1006E0000036012EFCD7005095150EE1275003E08F
:1006F000010A06E009D0010E286E180E2B6E04D0F8
:10070000010E286E980E2B6E272ACCD71FA635D047
:100710001FA833D0285231E1276A275001082DE362
:10072000080E006E2750016E04E0D8900036012EAE
:10073000FCD700501F141FE0036A2650200FE96EFB
:10074000000E0320EA6EEFCF95F0080E006E2750E2
:10075000016E04E0D8900036012EFCD700509515AC
:100760000AE1275003E0010A04E005D0190E2B6EC0
:1007700002D0990E2B6E272AD0D7286A23D11FB01A
:100780000DD0870E2B6E936881CF1FF01FA0FBD773
:100790002B52D8A4FDD7070E2B6E14D11FB60DD047
:1007A000880E2B6E936881CF1FF01FA6FBD72B52AC
:1007B000D8A4FDD7080E2B6E05D11FB80DD0890E19
:1007C0002B6E936881CF1FF01FA8FBD72B52D8A4A4
:1007D000FDD7090E2B6EF6D01FBA0DD08A0E2B6EE8
:1007E000936881CF1FF01FAAFBD72B52D8A4FDD747
:1007F0000A0E2B6EE7D01FA233D01FA431D0276A78
:10080000275001082DE3020E006E2750016E04E010
:10081000D8900036012EFCD700501F141FE0036A49
:100820002650200FE96E000E0320EA6EEFCF95F000
:10083000020E006E2750016E04E0D8900036012EA3
:10084000FCD7005095150AE1275003E0010A04E0A7
:1008500005D01A0E2B6E02D09A0E2B6E272AD0D7F7
:10086000B1D01FB006D08B0E2B6E2D5201E133DCC0
:10087000A9D01FBA0DD08C0E2B6E936881CF1FF0BC
:100880001FAAFBD72B52D8A4FDD70C0E2B6E9AD0E3
:100890001FA233D01FA431D0276A275001082DE3AF
:1008A000020E006E2750016E04E0D8900036012E33
:1008B000FCD700501F141FE0036A2650200FE96E7A
:1008C000000E0320EA6EEFCF95F0020E006E275067
:1008D000016E04E0D8900036012EFCD7005095152B
:1008E0000AE1275003E0010A04E005D01B0E2B6E3D
:1008F00002D09B0E2B6E272AD0D764D01FB00DD00C
:100900008D0E2B6E936881CF1FF01FA0FBD72B524B
:10091000D8A4FDD70D0E2B6E55D01FB20DD08E0E64
:100920002B6E936881CF1FF01FA2FBD72B52D8A448
:10093000FDD70E0E2B6E46D01FB40DD08F0E2B6E32
:10094000936881CF1FF01FA4FBD72B52D8A4FDD7EB
:100950000F0E2B6E37D01FB60DD0900E2B6E9368F6
:1009600081CF1FF01FA6FBD72B52D8A4FDD7100EA6
:100970002B6E28D01FB80DD0910E2B6E936881CFAF
:100980001FF01FA8FBD72B52D8A4FDD7110E2B6E3A
:1009900019D01FBA0DD0920E2B6E936881CF1FF025
:1009A0001FAAFBD72B52D8A4FDD7120E2B6E0AD04C
:1009B000036A2650200FE96E000E0320EA6E1FC066
:1009C000EFFF00D0036A2650200FE96E000E0320CF
:1009D000EA6E1FC0EFFF942D07D0929C899C929ED7
:1009E000898E949E8B8E946B262A54D452D4030005
:020000040030CA
:0E00000000CF1E1E008781000FC00FE00F40D2
:00000001FF
;PIC18F2515
;CRC=C119  CREATED="09-фев-22 11:55"
